:0300000002091AD8
:0C091A00787FE4F6D8FD75817702096152
:030BD600014301D7
:1004EC00120D2E753400753520753600753709756B
:1004FC003800753904753A00753B157B017A007D1F
:08050C00137C007F071209A611
:10051400120BB08F45EF6033754401E4F543F56287
:100524008545461207ED78487C007D007E007F07F4
:100534001203EC78307C007D007B007A0079487EE1
:10054400007F071203ECAF46120AAB120CE18F2EA8
:10055400E52EB4211BE4F543E54170047F018002DC
:100564007F008F41E54170047F0180027F008F424C
:10057400E52EB4240C754301E4F544F547F541F543
:1005840042E52EB40903754701E543600B1207EDFC
:100594007F0D120614020514E5446036E561600817
:1005A400E4F561F544754301E54EFD7C00E54CFB43
:1005B4007A00753500854B36753700854A387539AC
:1005C4000085493A753B0085463C7F2012071D0291
:1005D4000514E541601FE54770047F018024AF2EB8
:1005E40012000EEF6003020514754301F547F5414F
:1005F400F542020514E5427003020514E54770084C
:0D0604007F02120C9E020514AF2E12088812
:03061100020514CB
:100C5400C0F9A4B0999282F880908EFFF0F1F2F37B
:090C6400F4F5F6F7F8F9FAFBFCCF
:100BD900101B80818A8B82838485868788898C8D86
:020BE9008E8FED
:10000E00BF1110E509B40C06E4F5090202940509C6
:10001E00020294BF140FE509700675090C020294D2
:10002E001509020294EF64226003020131E50924EE
:10003E00FEB40B00400302029490005575F003A429
:10004E00C58325F0C5837302012002010F0200FE55
:10005E000200ED0200DC0200CB0200BA0200A9028F
:10006E000098020087020076AE150515EE64076053
:10007E0003020294F515020294AE130513EE640901
:10008E006003020294F513020294AE120512EE649E
:10009E00066003020294F512020294AE110511EEEF
:1000AE0064096003020294F511020294AE0E050E6D
:1000BE00EE64066003020294F50E020294AE100581
:1000CE0010EE64096003020294F510020294AE0D64
:1000DE00050DEE64036003020294F50D020294AE68
:1000EE002C052CEE64096003020294F52C02029496
:1000FE00AE2B052BEE64016003020294F52B020277
:10010E0094AE0B050BEE64096003020294F50B022C
:10011E000294AE2D052DEE64096003020294F52DB6
:10012E00020294EF640A6003020220E50924FEB481
:10013E000B00400302029490015375F003A4C58393
:10014E0025F0C583730202140202040201F40201B7
:10015E00E40201D40201C40201B40201A40201941A
:10016E00020184020174AE151515EE6003020294AD
:10017E00751507020294AE131513EE600302029476
:10018E00751309020294AE121512EE600302029468
:10019E00751206020294AE111511EE60030202945E
:1001AE00751109020294AE0E150EEE600302029452
:1001BE00751106020294AE101510EE600302029441
:1001CE00751009020294AE0D150DEE600302029435
:1001DE00750D03020294AE2C152CEE6003020294F0
:1001EE00752C09020294AE2B152BEE6003020294BD
:1001FE00752C01020294AE0B150BEE6003020294F5
:10020E00750B09020294AE2D152DEE7079752D0920
:07021E008074EF6409706FAA
:10022500E50870047F0180027F008F08E50CC45447
:10023500F0450FF517E512C454F04513F51AE50E10
:10024500C454F04511F519E50DC454F04510F518E1
:10025500E52BC454F0452CF514E52DC454F0450B9D
:10026500F516E51AFD7C00E519FB7A007534008565
:100275001835753600851437753800851539753A82
:0F0285000085163BAF171209A6E5087002FF228D
:10029400E51275F00AA47C002513FFEC35F0FED3BB
:1002A400EF943CEE648094804006751206E4F513E6
:1002B400E50E75F00AA47C002511FFEC35F0FED3A1
:1002C400EF943CEE648094804006750E06E4F511CC
:1002D400E52B75F00AA47C00252CFFEC35F0FED349
:1002E400EF940CEE648094804006752B01752C020B
:1002F400E50D75F00AA47C002510FFEC35F0FED363
:10030400EF941FEE648094804006750D0375100110
:07031400AF091206147F017E
:01031B0022BF
:100CB5007590FFED900C5493F5A0EF900C6093F5B3
:060CC500907F0A020D649D
:060CCB00C2B5C2B6D2B5AD
:0F0CD100EF7F08A2E092B7D2B6C2B6C313DFF42A
:010CE00022F1
:100D0C007F08C313D2B7A2B792E7D2B6C2B6DFF24E
:010D1C00FFD7
:010D1D0022B3
:0D0D4C00120CCBAF05120CD1D2B6C2B522ED
:0A0D5900120CCB120D0CD2B6C2B57D
:010D6300226D
:1009A600AE078D828C83E4FDFC7F8E120D4CEEFD2E
:1009B6007F80120D4CAD82AC837F82120D4CAD034D
:1009C600AC027F84120D4CAD35AC347F86120D4CD3
:1009D600AD37AC367F88120D4CAD39AC387F8A12F4
:1009E6000D4CAD3BAC3A7F8C120D4C7D807C007F6C
:0409F6008E020D4C14
:1007ED007F81120D598F17E517C4540FF50CE517BE
:1007FD00540FF50F7F83120D598F1AE51AC4540F3C
:10080D00F512E51A540FF5137F85120D598F19E561
:10081D0019C4540FF50EE519540FF5117F87120DFC
:10082D00598F18E518C4540FF50DE518540FF51030
:10083D007F89120D598F14E514C4540FF52BE5144F
:10084D00540FF52C7F8D120D598F16E516C4540FCC
:10085D00F52DE516540FF50B7F8B120D598F158560
:10086D00172F851A30851931851832851433851661
:0A087D00358515347B007A00792FD1
:01088700224E
:020614008F2F26
:1006160085600AE52FB40C08E50A60047D0B8002AC
:10062600AD157F0C120CB5E52FB40B08E50A600476
:100636007D0B8002AD137F0B120CB5E52FB40A08B3
:10064600E50A60047D0B8002AD127F0A120CB5E547
:100656002FB40908E50A60047D0B8002AD117F09FD
:10066600120CB5E52FB40808E50A60047D0B80027C
:10067600AD0E7F08120CB5E52FB40708E50A600435
:100686007D0B8002AD107F07120CB5E52FB406086E
:10069600E50A60047D0B8002AD0D7F06120CB5E500
:1006A6002FB40508E50A60047D0B8002AD2C7F059A
:1006B600120CB5E52FB40408E50A60047D0B800230
:1006C600AD2B7F04120CB5E52FB40308E50A6004D0
:1006D6007D0B8002AD0B7F03120CB5E52FB402082B
:1006E600E50A60047D0B8002AD2D7F02120CB5E594
:1006F6002FB40108E50A60047D0B8002E4FD7F014A
:10070600120CB5E52F7008E50A60047D0B80027DAA
:0607160002E4FF120CB525
:01071C0022BA
:10071D008F308C318D328A338B34AD3C7F0C120C83
:10072D00B5AE39AF3A7C007D101204617F0B120C0F
:10073D00B5AE39AF3A7C007D10120461AD077F0A6A
:10074D00120CB5AE37AF387C007D101204617F09F5
:10075D00120CB5AE37AF387C007D10120461AD07B9
:10076D007F08120CB5AE35AF367C007D10120461DA
:10077D007F07120CB5AE35AF367C007D10120461CB
:10078D00AD077F06120CB5AE33AF347C007D101271
:10079D0004617F05120CB5AE33AF347C007D1012B1
:1007AD000461AD077F04120CB5AE31AF327C007D14
:1007BD00101204617F03120CB5AE31AF327C007D97
:1007CD0010120461AD077F02120CB5E530540FFD18
:1007DD007F01120CB5E530C4540FFDE4FF020CB5DA
:1009FA007580F8E58054F864F86031E58054F8644D
:100A0A00F860297FFEEF30E323F580E58054F8642F
:100A1A00F8600DE58054F84407F4FEEFF42EFF2247
:0E0A2A007801EF08800123D8FDFF80D97F00FE
:010A3800229B
:100CE1001209FAEF6004F5678009E5676005FFE422
:050CF100F567227F0001
:010CF60022DB
:0E0D3E00D2877F01120D64D2867F01020D6400
:100D1E00D287D2867F01120D64C2877F01020D64D5
:100CF700C2877F01120D64D2867F01120D64D287ED
:050D07007F01020D64F4
:100C1A00E4F53FD2867F01120D6430870BE53FC3AE
:0F0C2A0094FF5004053F80F2C2867F01020D64E3
:100AE3008F40E4F53FE54025E0F540C2867F0112E3
:100AF3000D6492877F01120D64D2867F01120D640B
:100B0300053FE53FC3940840DCC2867F01120D64B4
:070B1300D2877F01020D648F
:100B1A00C2867F01120D64D287E4F538D2867F013E
:100B2A00120D64E53925E0FFA287E4334FF539C297
:100B3A00867F01120D640538E538C3940840DD7FCD
:060B4A0001120D64AF3939
:010B50002282
:100BF8008F3D8D3E120D1E7FA0120AE3120C1AAF14
:100C08003D120AE3120C1AAF3E120AE3120C1A0242
:020C18000CF7D7
:020B85008F36A9
:100B8700120D1E7FA0120AE3120C1AAF36120AE3E7
:100B9700120C1A120D1E7FA1120AE3120C1A120B65
:080BA7001A8F37120CF7AF376B
:010BAF002223
:080A39008B378A3889398D3AA8
:100A4100E4F53CE53CC3953B5021E53A253CFFAB41
:100A510037AA38A939853C82758300120412FD1228
:100A61000BF87F14120C86053C80D8E53A253CFF33
:010A71002262
:080B51008B308A3189328D33AB
:100B5900E4F535E535C39534501CE5332535FF12E9
:100B69000B85AB30AA31A932853582758300EF1226
:0B0B7900043F053580DDE5332535FF26
:010B8400224E
:100C6D007B007A00794FEF75F009A4FD75340912F8
:080C7D000B517B007A00794F56
:010C8500224C
:100C39007B007A007957EF75F008A424F9FD753423
:0A0C490008120B517B007A00795766
:010C5300227E
:090BEB00016000016100016200DB
:100D2E00758CEC758A78758901D2A9D2AFD28C22D6
:03000B00020A7274
:090A7200C0E0C0D075D000C0073F
:100A7B00758C3C758AB0055F0562E55FB40A0F752E
:100A8B005F00E56070047F0180027F008F60E5628C
:090A9B00B43206756200756101B8
:070AA400D007D0D0D0E032F2
:100C8600EFD394004011E4FDFC0DBD00010CED64B2
:070C96007D4C70F51F80E9A1
:010C9D002234
:0A0D6400AE071FEE60030080F722C7
:100C9E008F2F7D0BE4FF120CB57D0A7F0A120CB567
:070CAE00AD2F7F0B020CB516
:030BF40001650197
:020888008F2FB0
:10088A00E52FB4090BE4FF120B858F638F64802276
:10089A00E52FB4220DAF640564EFB56303756401F7
:1008AA008010E52FB40A22AF641564EFB401038502
:1008BA0063647B007A007968E56475F008A424F91A
:1008CA00FD753408120B518008E52FB41203E4F5C4
:1008DA0066E56475F00A84C454F0FFE56475F00AAD
:1008EA0084EF25F0FF7868E6FD7C0008E6FB7A00D5
:1008FA0008E6753500F53608E6753700F53808E676
:10090A00753900F53A786FE6753B00F53C02071D2C
:100BB000E4F52F209405C2B07F0122209505C2B133
:100BC0007F0222209605C2B27F0322209705C2B37E
:050BD0007F04227F00FC
:010BD50022FD
:100AAB007870A63608A63408A63308A63208A631F5
:100ABB0008A63008A63508A6070566AD66E4FF1242
:100ACB000BF87F14120C867B007A007970753B084B
:070ADB00AD65120A398F65B9
:010AE20022F1
:100926000204ECE493A3F8E493A34003F68001F2F7
:1009360008DFF48029E493A3F85407240CC8C333D2
:10094600C4540F4420C8834004F456800146F6DFA1
:10095600E4800B0102040810204080900BD6E47E50
:10096600019360BCA3FF543F30E509541FFEE49396
:10097600A360010ECF54C025E060A840B8E493A35D
:10098600FAE493A3F8E493A3C8C582C8CAC583CA88
:10099600F0A3C8C582C8CAC583CADFE9DEE780BE40
:010BF70000FD
:10031C00E709F608DFFA8046E709F208DFFA803EC3
:10032C0088828C83E709F0A3DFFA8032E309F608B0
:10033C00DFFA8078E309F208DFFA807088828C8318
:10034C00E309F0A3DFFA806489828A83E0A3F608CC
:10035C00DFFA805889828A83E0A3F208DFFA804CA6
:10036C0080D280FA80C680D4806980F2803380107D
:10037C0080A680EA809A80A880DA80E280CA8033E6
:10038C0089828A83ECFAE493A3C8C582C8CCC5835E
:10039C00CCF0A3C8C582C8CCC583CCDFE9DEE7802E
:1003AC000D89828A83E493A3F608DFF9ECFAA9F0AD
:1003BC00EDFB2289828A83ECFAE0A3C8C582C8CC03
:1003CC00C583CCF0A3C8C582C8CCC583CCDFEADE1C
:1003DC00E880DB89828A83E493A3F208DFF980CC7E
:1003EC0088F0EF60010E4E60C388F0ED2402B40477
:1003FC000050B9F582EB2402B4040050AF2323451E
:06040C00822390036C73D3
:10041200BB010CE58229F582E5833AF583E022509F
:1004220006E92582F8E622BBFE06E92582F8E222E9
:0D043200E58229F582E5833AF583E4932203
:10043F00F8BB010DE58229F582E5833AF583E8F0F3
:10044F00225006E92582C8F622BBFE05E92582C89F
:02045F00F22287
:10046100C2D5EC30E709B2D5E4C39DFDE49CFCEEB6
:1004710030E715B2D5E4C39FFFE49EFE120497C393
:10048100E49DFDE49CFC800312049730D507C3E48E
:060491009FFFE49EFE2225
:10049700BC000BBE0029EF8DF084FFADF022E4CC49
:1004A700F875F008EF2FFFEE33FEEC33FCEE9DEC12
:1004B700984005FCEE9DFE0FD5F0E9E4CEFD22ED58
:1004C700F8F5F0EE8420D21CFEADF075F008EF2FA2
:1004D700FFED33FD4007985006D5F0F222C398FD93
:0504E7000FD5F0EA2230
:00000001FF
