:100C3300120F4412000E120E42120F811206AFD28F
:100C4300AFAF0875F003EFA42464F582E5F0340F29
:100C5300F583E493FB740193FA740293F9120F542E
:030C630080DF220D
:0E0F730081838587898B8D80828486888A8C15
:020E63008F5DA1
:100E6500755E08E55ED394004013E55D1392B7D235
:0D0E7500B6C2B6E55DC313F55D155E80E6FF
:010E8200224D
:100DFB00756000755F08E55FD394004014E560C330
:100E0B0013F56030B703436080D2B6C2B6155F806E
:030E1B00E5AF60E0
:010E1E0022B1
:100EDC008F618D62C2B5C2B6D2B5AF61120E63AF6F
:090EEC0062120E63D2B6C2B522F7
:020EF5008F6309
:100EF700C2B5C2B6D2B5AF63120E63120DFB8F64D3
:060F0700D2B6C2B5AF64D2
:010F0D0022C1
:100E4200C2B6C2B57D007F8E120EDC7D067F901287
:100E52000EDC7D007F80120EDC7D807F8E120EDC28
:010E6200226D
:060C99008B498A4A894BD9
:100C9F00754C00E54CC394075020AF4CEF900F7389
:100CAF0093FF120EF5AB49AA4AA94BAE4C8E827533
:0A0CBF008300EF120141054C80D9BB
:010CC9002208
:060B4A008B4D8A4E894F1D
:100B50007D007F8E120EDC755000E550C394075067
:100B600020AF50EF900F7A93FFAB4DAA4EA94FAE36
:100B7000508E82758300120114FD120EDC05508028
:080B8000D97D807F8E120EDC8E
:010B8800224A
:020E83008F518D
:100E8500755200755300AF517E00C3E5539FE5527F
:0D0E95009E500A0553E5537002055280E996
:010EA200222D
:0100030022DA
:0B0F8100D286120003D2871200032268
:100F0E00D287120003D286120003C287120003C2D8
:050F1E00861200032211
:100F3400C287120003D286120003D2871200032252
:020BFE008F5412
:100C0000855456755500E555C39408501BE5562587
:100C1000E0F556C286120003A2D79287120003D2D3
:100C200086120003055580DEC286120003D28712A9
:020C30000003BF
:010C3200229F
:100B8900755900C286120003D287755700E557C30D
:100B990094085023120003D286120003308705758A
:100BA90058018003755800E55925E0FFEF4558F5D0
:0C0BB90059C286055780D6120003AF59C0
:010BC500220D
:100EC000751F00D28612000330870BE51FC394FF05
:0B0ED0005004051F80F2C286120003D0
:010EDB0022F4
:020CFB008F6503
:100CFD00120F0E7FA0120BFE120EC0AF65120BFE6F
:100D0D00120EC0120F0E7FA1120BFE120EC0120B8F
:0D0D1D00898F66120F347F0A120E83AF66B5
:010D2A0022A6
:100D2B008F678D68C2AF120F0E7FA0120BFE120ED3
:100D3B00C0AF67120BFE120EC0AF68120BFE120E85
:0C0D4B00C0120F34D2AF7F32120E832290
:080AB4008F178B188A19891AAB
:100ABC00751B007B007A0079008B1C8A1D891EAB8C
:100ACC0018AA19A91A8B1C8A1D891E751B00E51BF7
:100ADC00C3940F501DE517251BFFAB1CAA1DA91EA7
:100AEC00AE1B8E82758300120114FD120D2B051B9B
:020AFC0080DC9C
:010AFE0022D5
:080AFF008F3C8B3D8A3E893FCC
:100B07007540007B007A0079008B418A428943ABAC
:100B17003DAA3EA93F8B418A428943754000E54083
:100B2700C3940F501DE53C2540FF120CFBAB41AAB7
:100B370042A943AE408E82758300EF120141054002
:020B470080DC50
:010B49002289
:0208F9008F71FD
:1008FB00787AA671787976011206AF7B007A007947
:10090B002DC003C002C0017B007A00797BA801AC2B
:10091B0002AD03D001D002D0037E007F0D1200EE9A
:10092B007F00120CFB7888A6077888E6FFEFC3944C
:10093B000A4019788876017888E6FD7F00120D2B26
:10094B007B007A0079797F01120AB42278880678C5
:10095B0088E6FD7F00120D2B7888E6FFEF75F00F10
:0F096B00A4FFEF24F2FF7B007A007979120AB41F
:01097A00225A
:040BC600026B0000BE
:100C6600E59054F0FFEF64F06026120EA320940581
:100C76007F0122801B2095057F0222801320960586
:100C86007F0322800B2097057F042280037F0022AA
:030C96007F0022BA
:1009F2008F698D6AE569605AE56A1201630A2C0003
:100A02000A090100000A54E5691201630A1E010A7B
:100A120021020A24030A270400000A54D2B022D277
:100A2200B122D2B222D2B3222222758D3C758BB072
:100A3200D28EE5691201630A49010A4C020A4F0388
:100A42000A520400000A54C2B022C2B122C2B22227
:030A5200C2B3220A
:0C000E00438910758D3C758BB0D2AB227D
:03001B00020A5581
:100A5500C0E0C0F0C083C082C0D075D000C000C067
:100A650001C002C003C004C005C006C007758D3CA7
:100A7500758BB0056CE56C7002056BD3E56C946401
:100A8500E56B9400400EC28E756B00756C0043B02B
:100A95000F1206AFD007D006D005D004D003D00280
:0F0AA500D001D000D0D0D082D083D0F0D0E032BA
:100F2300C0F9A4B0999282F88090C8868E00000020
:010F330000BD
:100BCA000D2D0000000000000000000000000001E0
:100BDA00A600C103012100023A000002220000C15E
:0D0BEA0000C101022B000002A70000C102A3
:020E1F008F6DD5
:100E2100756E00E56EC3940C500CAF6E742D2FF8E7
:100E310076FF056E80EDAF6DEF900F2393FF8F3935
:010E4100228E
:100D5700757200E572C3940A500CAF72742D2FF8A8
:100D670076FF057280ED900F2FE493FF8F37900F7A
:090D770024E493FF8F387539FF65
:010D80002250
:100D8100757300E573C3940A500CAF73742D2FF87B
:100D910076FF057380ED900F2FE493FF8F37900F4F
:090DA10025E493FF8F387539FF3A
:010DAA002226
:100F4400438901758CFC758A18C2AFD2A9D28C2250
:1006AF007B007A007924120C99900F25E493FF8F29
:1006BF002D900F23E493FF8F2EE52AC4540FFFEFE5
:1006CF00900F2393FF8F2FE52A540FFFEF900F23E7
:1006DF0093FF8F30E528C4540FFFEF900F2393FF44
:1006EF008F31E528540FFFEF900F2393FF8F32E5E3
:1006FF0027C4540FFFEF900F2393FF8F33E5275439
:10070F000FFFEF900F2393FF8F34E526C4540FFF95
:10071F00EF900F2393FF8F35E526540FFFEF900FC8
:10072F002393FF8F36E525C4540FFFEF900F2393CC
:10073F00FF8F37E525540FFFEF900F2393FF8F386F
:0E074F00E529540FFFEF900F2393FF8F3922FF
:100541008F74E574120163057300057D010587024F
:10055100059103059B0405A50505AF0605B907052A
:10056100C30805CD0905D70A05E10B05EB0C000011
:1005710005F3C290C291C292C2938076D290C29189
:10058100C292C293806CC290D291C292C293806295
:10059100D290D291C292C2938058C290C291D2920B
:1005A100C293804ED290C291D292C2938044C290A3
:1005B100D291D292C293803AD290D291D292C293E6
:1005C1008030C290C291C292D2938026D290C291C1
:1005D100C292D293801CC290D291C292D2938012C5
:1005E100D290D291C292D2938008C290C291D292FB
:0D05F100D293AF74742D2FF8E6FF8FA02277
:02045B008F759B
:10045D00C203E575D3940A4026788976007889E63B
:10046D00FFEFC3940D5015900F2EE493FF7889E69E
:10047D00FE742D2EF8A60778890680E1C20322E5C9
:10048D007575F00FA4FFEF24F2FF7B007A00798AD7
:10049D00120AFF788AE6FFEFB401307B007A00790B
:1004AD008CC003C002C0017B007A00790AA801ACA0
:1004BD0002AD03D001D002D0037E007F0D1200EEFD
:1004CD00788BE6FF78A6A607D203227B007A007907
:1004DD008A7F01120AFF788AE6FFEFB401307B00B4
:1004ED007A00798CC003C002C0017B007A00790AC2
:1004FD00A801AC02AD03D001D002D0037E007F0D68
:10050D001200EE788BE6FF78A6A607D20322788933
:10051D0076007889E6FFEFC3940D5015900F2EE409
:10052D0093FF7889E6FE742D2EF8A607788906804C
:03053D00E1C20315
:010540002298
:03000B000201BB34
:1001BB00C0E0C0F0C083C082C0D075D000C000C00A
:1001CB0001C002C003C004C005C006C007758CFC8B
:1001DB00758A180521E52175F00D84AFF0120541E4
:1001EB00E508640270740523E52370020522D3E54C
:1001FB002394F4E5229401406175220075230020BD
:10020B000131D2017B007A00790AC003C002C00120
:10021B007B007A00792DA801AC02AD03D001D0028E
:10022B00D0037E007F0D1200EEAF09742D2FF876F0
:10023B00FF8027C2017B007A00790AC003C002C08D
:10024B00017B007A00792DA801AC02AD03D001D05F
:10025B0002D0037E007F0D1200EEE5087047208E62
:10026B0044053BE53B7002053A052CE52C70020575
:10027B002BC3E52C94E8E52B94034009752B0075F3
:10028B002C001206AFC3E53B94F4E53A94014015FC
:10029B00753A00753B00200007D20043388080057B
:1002AB00C20053387FE5086404706B30036878A88C
:1002BB0006E61870010678A7E6FE08E6FFC3EF9482
:1002CB00E8EE9403405078A77600087600300229B8
:1002DB00C2027B007A00790AC003C002C0017B0016
:1002EB007A00792DA801AC02AD03D001D002D00366
:1002FB007E007F0D1200EE801DD2027E007F0C7DF2
:10030B00FF7B007A00792D12018F78A6E6FFEF9024
:10031B000F2393FF8F39D007D006D005D004D0031D
:10032B00D002D001D000D0D0D082D083D0F0D0E09A
:01033B00328F
:100EA300756F14E56FD3940040127570F8E570D335
:0C0EB30094004004157080F5156F80E776
:010EBF002210
:10075D007547FF7548004380075380C7E5805407F0
:10076D00FFEF64076074120EA3E5805407FFEF647A
:10077D00076067E5805407F544854480438038E57C
:10078D00805438F545E5442545F546E546120163A7
:10079D0007BC1B07C11D07C61E07CB2B07D02D0796
:1007AD00D52E07DA3307DF3507E436000007E77586
:1007BD00470080267547018021754702801C7547CB
:1007CD000380177547048012754705800D75470620
:0C07DD0080087547078003754708AF4788
:0107E90022ED
:0F0F6400FF0CCAFF0DABFF033CFF0DD5FF097B50
:060BF700010800010900E5
:100F54008B5A8A5B895CAB5AAA5BA95C1201892211
:100CCA007576001206AF12075DEFB40204750801CB
:100CDA0022120C668F76E57660EC7D00AF761209FB
:100CEA00F2AF76120E1FAF761208F975760080D62B
:010CFA0022D7
:100DAB00120D5712075DEFB408067508022280F387
:100DBB0012075DEF70067508002280E712075DEFE2
:0A0DCB00B402E07508032280DA226A
:100DD500120D8112075DEFB408047508042212078D
:100DE5005DEF70047508002212075DEFB402E4752B
:060DF50008002280DE224E
:10097B007F00120CFB78A9A60778A9E6FF12045B8F
:10098B0012075D7508032212075D78A9E6FFEFD306
:10099B00940A400978A9E6FF12045B801878A9062F
:1009AB0078A9E6FFEFD3940A400478A9760078A9DA
:1009BB00E6FF12045B12075DEFB405C478A9E6FFEE
:1009CB00EFD3940A400978A9E6FF12045B80B17853
:1009DB00A91678A9E6FFEF700478A9760A78A9E63C
:0609EB00FF12045B809A7C
:0109F10022E3
:020876008F777A
:1008780078AA76FFE577D3940C40037FFF22AF7701
:10088800740A2FF8E6FFEF12016308E48008D882A3
:1008980008EA9008D29208CC9908C0A408C6B00803
:1008A800B4C008DEF808BAF9000008F078AA7600A3
:1008B800803A78AA7601803478AA7602802E78AABF
:1008C8007603802878AA7604802278AA7605801C88
:1008D80078AA7606801678AA7607801078AA76080D
:1008E800800A78AA7609800478AA76FF78AAE6FFB3
:0108F80022DD
:1005FE007F02120876EFC454F0FE7F03120876EFE6
:10060E002EFF7899A6077F04120876EFC454F0FEE9
:10061E007F05120876EF2EFF789BA6077F0612083D
:10062E0076EFC454F0FE7F07120876EF2EFF789C0B
:10063E00A6077F0C120876789AA6077F081208760E
:10064E00EFC454F0FE7F09120876EF2EFF789DA6B8
:10065E00077F0A120876EFC454F0FE7F0B1208765D
:10066E00EF2EFF789EA6077899E6FF78A5A6077865
:10067E009AE6FF78A4A607789BE6FF78A3A60778EC
:10068E009CE6FF78A2A607789DE6FF78A1A60778DC
:10069E009EE6FF78A0A6077B007A00799F120B4A90
:0106AE002229
:10033C001206AF7B007A00792DC003C002C0017B8E
:10034C00007A00790AA801AC02AD03D001D002D02A
:10035C00037E007F0D1200EE12075DEFB4030F1544
:10036C0009E509D3940C400375090C1206AF12076A
:10037C005DEFB4050E0509E50975F00D8485F009EE
:10038C001206AF12075DEF6401704DAF09120876CB
:10039C008F78E57864FF60400578E57875F00A841D
:1003AC0085F078AF78EF900F2393FFAE09740A2E87
:1003BC00F8A6077B007A00790AC003C002C0017B53
:1003CC00007A00792DA801AC02AD03D001D002D087
:1003DC00037E007F0D1200EE12075DEF6407704D77
:1003EC00AF091208768F78E57864FF6040E5787085
:1003FC000575780980021578AF78EF900F2393FF7D
:10040C00AE09740A2EF8A6077B007A00790AC0039D
:10041C00C002C0017B007A00792DA801AC02AD03AB
:10042C00D001D002D0037E007F0D1200EE12075DCA
:10043C00EFB4080A1205FE750800220203641207C5
:0E044C005DEF60030203647508012202036481
:01045A00227F
:030000000207EA0A
:0C07EA00787FE4F6D8FD7581AA02083182
:10001E00E709F608DFFA8046E709F208DFFA803EC4
:10002E0088828C83E709F0A3DFFA8032E309F608B1
:10003E00DFFA8078E309F208DFFA807088828C8319
:10004E00E309F0A3DFFA806489828A83E0A3F608CD
:10005E00DFFA805889828A83E0A3F208DFFA804CA7
:10006E0080D280FA80C680D4806980F2803380107E
:10007E0080A680EA809A80A880DA80E280CA8033E7
:10008E0089828A83ECFAE493A3C8C582C8CCC5835F
:10009E00CCF0A3C8C582C8CCC583CCDFE9DEE7802F
:1000AE000D89828A83E493A3F608DFF9ECFAA9F0AE
:1000BE00EDFB2289828A83ECFAE0A3C8C582C8CC04
:1000CE00C583CCF0A3C8C582C8CCC583CCDFEADE1D
:1000DE00E880DB89828A83E493A3F208DFF980CC7F
:1000EE0088F0EF60010E4E60C388F0ED2402B40478
:1000FE000050B9F582EB2402B4040050AF2323451F
:06010E00822390006E73D5
:10011400BB010CE58229F582E5833AF583E02250A0
:1001240006E92582F8E622BBFE06E92582F8E222EA
:0D013400E58229F582E5833AF583E4932204
:10014100F8BB010DE58229F582E5833AF583E8F0F4
:10015100225006E92582C8F622BBFE05E92582C8A0
:02016100F22288
:10016300D083D082F8E4937012740193700DA3A32B
:1001730093F8740193F5828883E47374029368603F
:06018300EFA3A3A380DF3F
:060189008A838982E47301
:10018F00EF4E6012EF60010EEDBB010B89828A8387
:10019F00F0A3DFFCDEFA2289F05007F709DFFCA994
:0C01AF00F022BBFEFCF309DFFCA9F022EB
:1007F600020C33E493A3F8E493A34003F68001F2DA
:1008060008DFF48029E493A3F85407240CC8C33303
:10081600C4540F4420C8834004F456800146F6DFD2
:10082600E4800B0102040810204080900BC6E47E91
:10083600019360BCA3FF543F30E509541FFEE493C7
:10084600A360010ECF54C025E060A840B8E493A38E
:10085600FAE493A3F8E493A3C8C582C8CAC583CAB9
:10086600F0A3C8C582C8CAC583CADFE9DEE780BE71
:010BFD0000F7
:00000001FF
